:100000000C9486000C94AE000C94AE000C94AE00E0
:100010000C94AE000C94AE000C94AE000C94AE00A8
:100020000C94AE000C94AE000C94AE000C948108BD
:100030000C94AE000C94AE000C94AE000C94AE0088
:100040000C9437080C94AE000C9405080C94DF0750
:100050000C94AE000C94AE000C94AE000C94AE0068
:100060000C94AE000C94AE00CDCCCC3D0AD7233C12
:1000700017B7D13877CC2B329595E6241FB14F0AAC
:100080000000803FCDCCCC3D6F12833A95BFD63374
:100090007D1D9026B3CE010C000020410000C84217
:1000A00000401C4620BCBE4CCA1B0E5AAEC59D74F7
:1000B00000000000240027002A00000000002500A6
:1000C00028002B00000000080002010000030407C4
:1000D00000000000000000000000000023002600D7
:1000E00029000404040404040404020202020202BB
:1000F00003030303030301020408102040800102EC
:1001000004081020010204081020820911241FBED7
:10011000CFEFD8E0DEBFCDBF11E0A0E0B1E0E2E478
:10012000F3E202C005900D92AA34B107D9F722E09C
:10013000AAE4B1E001C01D92AD32B207E1F710E0D0
:10014000C6E8D0E004C02197FE010E949E0FC5388A
:10015000D107C9F70E94DF090C949F110C9400008D
:100160008F929F92AF92BF92FF920F931F93CF9364
:10017000DF93F09026022BE02F1508F44CC020915D
:10018000280208E512E0021B110927FD1395000F54
:10019000111F000F111F20912702C8E8D0E0C21BD9
:1001A000D10927FDD395CC0FDD1FCC0FDD1F4E01EC
:1001B0000D2E000CAA08BB089801012E000C440B60
:1001C000550B281939094A095B09DC010E94F40D15
:1001D00024EB30E040E050E00E94CA0D820E931EF6
:1001E000A41EB51E8C169D062CF0E8018016910603
:1001F0000CF4E4012297CC0FDD1F2FB7F8948F2D5C
:1002000090E0FC01EE0FFF1FE80FF91FEF5FFD4FBD
:10021000D283C1832FBFDF91CF911F910F91FF90A8
:10022000BF90AF909F908F9008950895AF92BF9226
:10023000CF92DF92EF92FF920F931F93CF93DF93B2
:100240006C017B018B01040F151FEB015E01AE18E1
:10025000BF08C017D10759F06991D601ED91FC9103
:100260000190F081E02DC6010995892B79F7C50130
:10027000DF91CF911F910F91FF90EF90DF90CF9082
:10028000BF90AF900895FC01538D448D252F30E031
:10029000842F90E0821B930B541710F0CF96089593
:1002A00001970895FC01918D828D981761F0A28DC0
:1002B000AE0FBF2FB11D5D968C91928D9F5F9F7386
:1002C000928F90E008958FEF9FEF0895FC01918D3C
:1002D000828D981731F0828DE80FF11D858D90E0A9
:1002E00008958FEF9FEF0895FC01918D228D892F46
:1002F00090E0805C9F4F821B91098F73992708952E
:1003000084E691E00E94740121E0892B09F420E049
:10031000822F089580E090E0892B29F00E948001CF
:1003200081110C9400000895FC01A48DA80FB92F31
:10033000B11DA35ABF4F2C91848D90E001968F730D
:100340009927848FA689B7892C93A089B1898C912C
:10035000837080648C93938D848D981306C002887B
:10036000F389E02D80818F7D80830895EF92FF9245
:100370000F931F93CF93DF93EC0181E0888F9B8DC8
:100380008C8D98131AC0E889F989808185FF15C082
:100390009FB7F894EE89FF896083E889F9898081A5
:1003A0008370806480839FBF81E090E0DF91CF9174
:1003B0001F910F91FF90EF900895F62E0B8D10E096
:1003C0000F5F1F4F0F731127E02E8C8D8E110CC005
:1003D0000FB607FCFACFE889F989808185FFF5CF50
:1003E000CE010E949401F1CFEB8DEC0FFD2FF11D9A
:1003F000E35AFF4FF0829FB7F8940B8FEA89FB898D
:1004000080818062CFCFCF93DF93EC01888D8823EA
:10041000B9F0AA89BB89E889F9898C9185FD03C067
:10042000808186FD0DC00FB607FCF7CF8C9185FF4C
:10043000F2CF808185FFEDCFCE010E949401E9CFFC
:10044000DF91CF91089590E0FC01EC53FF4F249190
:10045000FC01EA50FF4F3491FC01EE51FF4FE49153
:10046000EE23C9F0222339F0233001F1A8F4213022
:1004700019F1223029F1F0E0EE0FFF1FE654FF4F93
:10048000A591B4918FB7F894EC91611126C0309585
:100490003E233C938FBF08952730A9F02830C9F040
:1004A000243049F7809180008F7D03C080918000C7
:1004B0008F7780938000DFCF84B58F7784BDDBCFCB
:1004C00084B58F7DFBCF8091B0008F778093B00093
:1004D000D2CF8091B0008F7DF9CF3E2BDACFCF9372
:1004E000DF9390E0FC01EA50FF4F24918E519F4F23
:1004F000FC0184918823D1F090E0880F991FFC01C2
:10050000E055FF4FA591B491FC01E654FF4FC59112
:10051000D49161110EC09FB7F8948C91E22FE095B1
:100520008E238C932881E223E8839FBFDF91CF91B4
:1005300008958FB7F894EC91E22BEC938FBFF6CF30
:100540003FB7F8948091500190915101A0915201D0
:10055000B091530126B5A89B05C02F3F19F0019615
:10056000A11DB11D3FBFBA2FA92F982F8827BC010D
:10057000CD01620F711D811D911D42E0660F771F35
:10058000881F991F4A95D1F708958F929F92AF9235
:10059000BF92CF92DF92EF92FF924B015C010E94DB
:1005A000A0026B017C010E94A0026C197D098E09DA
:1005B0009F09683E734081059105A8F321E0821AE6
:1005C0009108A108B10888EEC80E83E0D81EE11C8E
:1005D000F11C81149104A104B10429F7FF90EF905C
:1005E000DF90CF90BF90AF909F908F900895892B10
:1005F00079F41092800082E080938100109285004F
:1006000010928400B19A80916F00826080936F0095
:100610000895CF93909126029C3008F044C0C82FD3
:1006200061E00E946F0280912602282F30E0F901DC
:10063000EE0FFF1FE20FF31FEF5FFD4FCF739081AF
:10064000907CC92BC08310922702109228022CE0C4
:10065000622F0E947E0F829FB001112430E020E0C3
:10066000AB01420F531FFA01EE0FFF1FE40FF51FFE
:10067000EF5FFD4F908196FD08C02F5F3F4F2C30FC
:10068000310571F790E00E94F702E09126028E2F6B
:1006900090E0FC01EE0FFF1FE80FF91FEF5FFD4F29
:1006A00080818064808380912602CF910895FC012F
:1006B0002581222339F0F8E02F0290011124820FC6
:1006C000931F089590E080E00895CF92DF92EF921B
:1006D000FF920F931F93CF93DF93FC018481982F98
:1006E0009F7739F48078806284831182108213822C
:1006F0001282848185FD0BC080E090E0DF91CF9174
:100700001F910F91FF90EF90DF90CF9008956115AA
:10071000710591F3EA017B016F01008111810115DF
:10072000110589F1D80116966D917C91C7010E943F
:100730008F11892B31F1C8010E9457038C01EFCF33
:100740003897FD83EC833097B9F2E601AA81BB812B
:10075000109791F0CF018A1B9B0B23E0959587950D
:100760002A95E1F715968C93FB83EA831582148210
:10077000F782E682CF01C2CFF983E883FB83EA8365
:10078000F5CFC801BBCFEC81FD818A819B810896A2
:10079000E817F907A8F681E08887AECF0F931F937B
:1007A000CF93DF93EC0188819981009759F02A81DA
:1007B0003B812617370730F081E0DF91CF911F9101
:1007C0000F9108958B016F5F7F4F0E94C9100097B2
:1007D00059F0998388831B830A832C813D81232BC5
:1007E00059F7FC011082E8CF80E0E7CFCF92DF928B
:1007F000EF92FF920F931F93CF93DF938C01DC0155
:100800009296ED91FC91E80FF91F12826C01B2E013
:10081000CB0ED11CC114D10449F1F6010190002086
:10082000E9F73197EC19FD09F1F0DC01ED90FC904E
:10083000D7011496CD91DC91CE0FDF1FBE01C70109
:100840000E94CE03882391F0F701208131818481B9
:100850009581B601820F931F0E949811D7011596BA
:10086000DC93CE931497F80113A212A2D8019296AA
:100870008D919C91DF91CF911F910F91FF90EF90FF
:10088000DF90CF9008951F93CF93DF93EC01162F45
:100890008AA19BA101968097B8F48AA19BA19C0193
:1008A0002F5F3F4F3BA32AA38C0F9D1FFC01128398
:1008B00021E030E08CA19DA1820F931F9DA38CA30A
:1008C000DF91CF911F910895CE010E94F603892BED
:1008D00021F330E020E0EECFBF92CF92DF92EF9293
:1008E000FF920F931F93CF93DF93EC016A018B016B
:1008F0007B01E40EF51EE016F106D1F0F801B1908F
:100900008F018AA19BA10196809760F48AA19BA187
:100910009C012F5F3F4F3BA32AA38C0F9D1FFC011F
:10092000B282E9CFCE010E94F603892B79F3E3CF9F
:100930004CA15DA14C0D5D1D5DA34CA3DF91CF913A
:100940001F910F91FF90EF90DF90CF90BF9008958F
:100950008F929F92AF92BF92CF92DF92EF92FF92CF
:100960000F931F93CF93DF93CDB7DEB766970FB684
:10097000F894DEBF0FBECDBF6C018E01095E1F4F24
:1009800078018AE0882E912CA12CB12CCB01BA01E0
:10099000A50194010E94330E942F852F605DF8010C
:1009A00062938F01A901692F782F411551056105C7
:1009B000710561F7A7014E1B5F0BBF01C6010E94C5
:1009C0006C0466960FB6F894DEBF0FBECDBFDF9104
:1009D000CF911F910F91FF90EF90DF90CF90BF903C
:1009E000AF909F908F900895FB0101900020E9F750
:1009F0003197AF01461B570B0C946C041F93CF9398
:100A0000DF93E8E1F1E01281112379F03296218140
:100A10006213F9CFEC016CE50E944304612FCE0113
:100A2000DF91CF911F910C9443046111F9CF69E2DA
:100A300071E0DF91CF911F910C94F4042F923F92BB
:100A40004F925F926F927F928F929F92AF92BF92DE
:100A5000CF92DF92EF92FF920F931F93CF93DF938A
:100A6000CDB7DEB76C970FB6F894DEBF0FBECDBF23
:100A70008C011B01DC0114968C9114978F778630C2
:100A800009F492C268F58230A0F11296ED90FC90C4
:100A90001397CC901196DC90843008F056C2A701D1
:100AA000B601C1010E946C04F10184A195A16C966C
:100AB0000FB6F894DEBF0FBECDBFDF91CF911F916F
:100AC0000F91FF90EF90DF90CF90BF90AF909F90ED
:100AD0008F907F906F905F904F903F902F900895F0
:100AE0008C3069F160F4883009F459C28A3009F415
:100AF0003FC260E371E0C1010E94F404E5C18032AD
:100B000009F4ECC18034A9F76BE5C1010E944304EC
:100B1000F801008111810115110509F4DAC1B10153
:100B2000C8010E941E05C8010E9457038C01892B31
:100B300009F4CFC16CE2C1010E944304ECCFF8017B
:100B4000C080D180E280F380A7019601C701B60181
:100B50000E94A60C8111CDCF20E030E0A901C70191
:100B6000B6010E94A60C882379F0A7019601C7015F
:100B7000B6010E94650E9B01AC01C701B6010E943F
:100B8000A60C882309F4B5CF20E030E0A901C70105
:100B9000B6010E94A60C87FF08C06DE2C1010E9449
:100BA0004304F7FAF094F7F8F09420E836E948E1C6
:100BB0005BE4C701B6010E94790F87FD81C074E133
:100BC000A72EB12C00E210E0188E1F8AF501E8561E
:100BD000FF4F2591359145915491C701B6010E946F
:100BE000790F87FD13C0F501E859FF4F2591359125
:100BF00045915491C701B6010E940C0D6B017C0117
:100C00002F89388D200F311F388F2F8B1595079521
:100C100034E0A31AB1088CEFA8168FEFB806B1F62E
:100C200055245A9420E030E0A901C701B6010E9482
:100C3000790F18160CF04BC02CEA35EC47E257E35D
:100C4000C701B6010E94A60C18160CF440C0A52DD1
:100C5000B4E0AB02C0011124B12CA12CFC01E0587E
:100C6000FF4F3F019C0128563F4F49013FEF53166C
:100C700071F1F301EA0DFB1D2591359145915491D8
:100C8000C701B6010E94A60C87FF13C0F401EA0D4C
:100C9000FB1D2591359145915491C701B6010E94E4
:100CA0000C0D6B017C018F89988D801B910B988FA7
:100CB0008F8B159507955A9494E0A91AB108D6CF51
:100CC00000E210E055E0552E188E1F8AABCFC70109
:100CD000B6010E944A0F4B015C012B013C0106E06A
:100CE00080E492E4AFE0B0E0898F9A8FAB8FBC8F45
:100CF000102F01509AE04916510461047104C8F0A4
:100D0000698D7A8D8B8D9C8D2AE030E040E050E03B
:100D10000E94330E298F3A8F4B8F5C8FC301B20133
:100D20002AE030E040E050E00E94330E29013A0111
:100D3000DFCFC501B4010E94AB0C9B01AC01C70120
:100D4000B6010E94640E6B017C01698D7A8D8B8DDA
:100D50009C8D0E94AB0C9B01AC01C701B6010E94A7
:100D60000C0D2B013C010E944A0F6B017C010E947B
:100D7000AB0C9B01AC01C301B2010E94640E9B014C
:100D8000AC010E94650E0E944A0FC60ED71EE81ED7
:100D9000F91E898D9A8DAB8DBC8DC816D906EA06D1
:100DA000FB06D8F09FEF891A990AA90AB90AAF89F8
:100DB000B88DAB2B39F1BAE08B169104A104B104C4
:100DC00008F1EF89F88D3196F88FEF8BC12CD12C7B
:100DD0007601812C912C540183942AE0422E512CCF
:100DE000612C712CC701B601A30192010E94330E40
:100DF000672B682B692B51F4111644F469017A01B1
:100E00001150F0CFC12CD12C7601E7CFB501A40150
:100E1000C1010E94A804112371F14E01F1E18F0E6E
:100E2000911C012F54019AE0492E512C612C712CF8
:100E3000015068F0C701B601A30192010E94330E70
:100E4000605DD4016E934D0169017A01F1CF812F6C
:100E500090E0BC0160957095F501E81BF90B3197A6
:100E60008EE2808344275527461B570B6A0D7B1D56
:100E7000C1010E946C04EF89F88DEF2B29F165E622
:100E8000C1010E9443040F89188D17FF07C06DE24E
:100E9000C1010E944304119501951109FE01779645
:100EA0009F018AE0E82EF12CC801B7010E948A0F49
:100EB000805D82938B01672BB9F7A9014E1B5F0BF5
:100EC000BF01C1010E946C04D10194968D919C9147
:100ED000EECD6DE5C1010E944304F6CF6BE7C10181
:100EE0000E944304F801008111810115110559F197
:100EF000D8011696CC9016971796DC9062E2C10145
:100F00000E9443047601F70161917F01662321F07D
:100F1000C1010E94FE04F7CF62E2C1010E944304B6
:100F20006AE3C1010E944304B101C8010E941E0589
:100F3000C8010E9457038C01892B29F06CE2C10182
:100F40000E944304D2CF6DE7C5CF62E2C1010E9487
:100F500043048601E00EF11EE016F10639F0F801B7
:100F600061918F01C1010E94FE04F6CF62E2B2CF0F
:100F7000CD90DD90ED90FC90B701A601F7FE0BC07F
:100F80006DE2C1010E94430444275527BA014C1960
:100F90005D096E097F09C1010E94A80485CD4D91AC
:100FA0005D916D917C91F7CF8C9165E371E081113A
:100FB00002C06AE371E0C1010E94F40475CD1F9282
:100FC0000F920FB60F9211242F933F934F935F937D
:100FD0006F937F938F939F93AF93BF93EF93FF9301
:100FE00084E691E00E949401FF91EF91BF91AF914F
:100FF0009F918F917F916F915F914F913F912F9131
:101000000F900FBE0F901F9018951F920F920FB662
:101010000F9211242F938F939F93EF93FF93E0915F
:101020007401F09175018081E0917A01F0917B016A
:1010300082FD1BC0908180917D018F5F8F73209115
:101040007E01821741F0E0917D01F0E0EC59FE4F06
:10105000958F80937D01FF91EF919F918F912F91BB
:101060000F900FBE0F901F9018958081F4CF1F92A4
:101070000F920FB60F9211242F933F938F939F934C
:10108000AF93BF9380914C0190914D01A0914E017F
:10109000B0914F0130914B0123E0230F2D3758F5CC
:1010A0000196A11DB11D20934B0180934C0190939B
:1010B0004D01A0934E01B0934F018091500190914A
:1010C0005101A0915201B09153010196A11DB11D92
:1010D0008093500190935101A0935201B09353011A
:1010E000BF91AF919F918F913F912F910F900FBE24
:1010F0000F901F90189526E8230F0296A11DB11D91
:10110000D2CF1F920F920FB60F9211242F933F93BD
:101110004F935F936F937F938F939F93AF93BF93FF
:10112000CF93DF93EF93FF9380914A01C091250203
:10113000D0E087FF24C01092850010928400809137
:101140004A018F5F80934A0180914A01082E000C6A
:10115000990B8C179D0724F480914A018C30C4F1BF
:101160008091840090918500049680349C4908F415
:101170007AC08091840090918500049676C0809119
:101180004A01082E000C990B8C179D07C4F6E091BC
:101190004A018E2FEE0F990BFC01EE0FFF1FE80F97
:1011A000F91FEF5FFD4F808186FFC9CFE0914A01B3
:1011B0008E2FEE0F990BFC01EE0FFF1FE80FF91FAA
:1011C000EF5FFD4F808160E08F730E942302B7CFF5
:1011D0002091840030918500E0914A018E2FEE0F1E
:1011E000990BFC01EE0FFF1FE80FF91FEF5FFD4F9A
:1011F00081819281820F931F909389008093880050
:10120000E0914A018E2FEE0F990BFC01EE0FFF1FAC
:10121000E80FF91FEF5FFD4F808186FF11C0E0915D
:101220004A018E2FEE0F990BFC01EE0FFF1FE80F06
:10123000F91FEF5FFD4F808161E08F730E942302F1
:10124000FF91EF91DF91CF91BF91AF919F918F91DE
:101250007F916F915F914F913F912F910F900FBEB2
:101260000F901F90189580E49CE9909389008093DB
:1012700088008FEF80934A01E3CFCF92DF92EF9205
:10128000FF920F931F93E82FF92F05C0015011090A
:101290002109310961F1908196239417B9F305C0B2
:1012A000015011092109310911F1908196239413FC
:1012B000F7CFC12CD12CE12CF12C0AC08FEFC81A2A
:1012C000D80AE80AF80A0C151D052E053F0579F025
:1012D00080818623841791F36C2D7D2D8E2D9F2D7B
:1012E0001F910F91FF90EF90DF90CF90089560E0F5
:1012F00070E080E090E01F910F91FF90EF90DF9001
:10130000CF900895109267011092660188EE93E0E5
:10131000A0E0B0E08093680190936901A0936A0116
:10132000B0936B018AE091E0909365018093640132
:1013300085EC90E0909371018093700184EC90E0D3
:10134000909373018093720180EC90E0909375010B
:101350008093740181EC90E0909377018093760103
:1013600082EC90E0909379018093780186EC90E094
:1013700090937B0180937A0110927D0110927E01FF
:1013800010927F0110928001809125028C3098F498
:1013900091E0980F909325028093260290E0FC0143
:1013A000EE0FFF1FE80FF91FEF5FFD4F88EB9BE08B
:1013B0009283818308958FEF809326020895CF93BF
:1013C000DF93CDB7DEB7C253D1400FB6F894DEBF7E
:1013D0000FBECDBF789484B5826084BD84B5816032
:1013E00084BD85B5826085BD85B5816085BD8091F0
:1013F0006E00816080936E00109281008091810068
:10140000826080938100809181008160809381005F
:10141000809180008160809380008091B100846021
:101420008093B1008091B00081608093B000809182
:101430007A00846080937A0080917A008260809341
:101440007A0080917A00816080937A0080917A009E
:10145000806880937A001092C100E0917401F0914D
:10146000750182E08083E0917001F091710110823A
:10147000E0917201F09173018FEC808310927C01F6
:10148000E0917801F091790186E08083E091760126
:10149000F0917701808180618083E0917601F09105
:1014A0007701808188608083E0917601F0917701F7
:1014B000808180688083E0917601F091770180815E
:1014C0008F7D8083809126028C3008F043C061E0DC
:1014D00087E00E946F0280912602282F30E0F901F8
:1014E000EE0FFF1FE20FF31FEF5FFD4F9081907C27
:1014F0009760908310922702109228022CE0622FAE
:101500000E947E0F90E0829FB001112430E020E025
:10151000AB01420F531FFA01EE0FFF1FE40FF51F3F
:10152000EF5FFD4F408146FD07C02F5F3F4F2C30DE
:10153000310571F70E94F702E09126028E2F90E0AC
:10154000FC01EE0FFF1FE80FF91FEF5FFD4F8081D9
:101550008064808361E085E00E946F0260E086E045
:101560000E946F0290E080E00E94B00064E670E0AC
:1015700080E090E00E94C502E09126028E2F90E06C
:10158000FC01EE0FFF1FE80FF91FEF5FFD4F808199
:101590008F7B80831E018FE0280E311C6E0193E744
:1015A000C90ED11CEEE14E2E512C612C712C7E0106
:1015B000A7EDEA1AAEEFFA0A54E5A52E51E0B52ED2
:1015C00068EE862E60E0962E61E08AE00E9423029B
:1015D00060E085E00E9423028FE090E00197F1F740
:1015E00061E085E00E94230287E390E00197F1F734
:1015F00060E085E00E94230260E086E00E946F02C6
:10160000ECEFF0E06491F4018491E82FF0E0EE0F4C
:10161000FF1FE852FF4F8591949100E412E42FE000
:1016200030E0462F0E943D09611571058105910545
:1016300029F06F5F7F4F8F4F9F4F9F7095958795D4
:10164000779567950E94AD0C2DEC3CEC48EE51E48B
:101650000E94D10E0E94430F60936001709361015C
:101660008093620190936301D5016D937D938D9377
:101670009D935D016AE070E080E090E00E94C50209
:10168000B0E6AB16B1E0BB0609F09ECF80905401E6
:1016900090905501A0905601B0905701809158014B
:1016A00090915901A0915A01B0915B01880D991D4B
:1016B000AA1DBB1D40915C0150915D0160915E01CE
:1016C00070915F014C015D01840E951EA61EB71E30
:1016D000C501B40123E030E040E050E00E94CA0DB3
:1016E000C15DDE4F288339834A835B83CF52D1406B
:1016F0003A8229823C822B82DE82CD82D886CF82BA
:1017000019861E86C501B401A30192010E94CA0D6B
:1017100049015A01C15DDE4F88819981AA81BB814F
:10172000CF52D1408092600190926101A0926201FB
:10173000B0926301AE014F5F5F4F60E471E0893C9E
:101740009105A105B1050CF0DDC0CE010A960E94FD
:101750006503FC01892B41F0948190789A60948311
:1017600080829182A282B38287E090E00E94090386
:1017700061E070E080E090E00E94C50290E080E0CF
:101780000E94B00068EE73E080E090E00E94C50225
:1017900086E990E00E94B00068EE73E080E090E09F
:1017A0000E94C502E09126028E2F90E0FC01EE0F10
:1017B000FF1FE80FF91FEF5FFD4F80818F7B808354
:1017C000D70111961C921E9213961C921E9212978C
:1017D00015961C921E92149770E060E0C7010E945B
:1017E000CE03F701208131818111A8C02115310577
:1017F00019F0C9010E944010D70111961C921E9247
:1018000015961C921E92149713961C921E92129774
:10181000CB5FDE4FF982E882C550D140C95DDE4F13
:1018200019821882C752D14084E2FE01EB5FFE4F5D
:10183000DE01AF51BF4F01900D928A95E1F784E22E
:10184000FE01EF51FF4FDE01A354BF4F01900D92F7
:101850008A95E1F784E2FE01E354FF4FDE01A756CB
:10186000BF4F01900D928A95E1F784E2FE01E756A1
:10187000FF4FD60101900D928A95E1F7D60195961A
:101880001C921E929497CE0187569F4F0E94F6039A
:10189000CE0183549F4F0E94F603B601CE010A96F3
:1018A0000E941E05C6010E94F603CE018F519F4F74
:1018B0000E94F603CE018B5F9E4F0E94F603F70154
:1018C000448155816081718184E691E00E94160116
:1018D00064EF71E080E090E00E94C502D7018D9135
:1018E0009C91009711F00E94401080E090E0892BBD
:1018F00009F462CE0E948001882309F45DCE0E9423
:1019000000005ACECE010A960E946503FC01892B85
:1019100041F0948190789A60948380829182A2822F
:10192000B38287E090E00E94090361E070E080E00C
:1019300090E00E94C50290E080E02CCF15821482D6
:1019400068E271E0C9010E94981162CF0E94E80C20
:1019500008F481E00895E89409C097FB3EF490955F
:101960008095709561957F4F8F4F9F4F9923A9F078
:10197000F92F96E9BB279395F69587957795679507
:10198000B795F111F8CFFAF4BB0F11F460FF1BC04B
:101990006F5F7F4F8F4F9F4F16C0882311F096E9DE
:1019A00011C0772321F09EE8872F762F05C066238C
:1019B00071F096E8862F70E060E02AF09A95660F45
:1019C000771F881FDAF7880F9695879597F90895FE
:1019D000990F0008550FAA0BE0E8FEEF1616170640
:1019E000E807F907C0F012161306E407F50798F0A8
:1019F000621B730B840B950B39F40A2661F0232BC1
:101A0000242B252B21F408950A2609F4A140A6953C
:101A10008FEF811D811D08950E941F0D0C94900D64
:101A20000E94820D38F00E94890D20F0952311F05C
:101A30000C94790D0C947F0D11240C94C40D0E940C
:101A4000A10D70F3959FC1F3950F50E0551F629F54
:101A5000F001729FBB27F00DB11D639FAA27F00D07
:101A6000B11DAA1F649F6627B00DA11D661F829F2E
:101A70002227B00DA11D621F739FB00DA11D621F13
:101A8000839FA00D611D221F749F3327A00D611D30
:101A9000231F849F600D211D822F762F6A2F112412
:101AA0009F5750409AF0F1F088234AF0EE0FFF1F45
:101AB000BB1F661F771F881F91505040A9F79E3F9C
:101AC000510580F00C94790D0C94C40D5F3FE4F344
:101AD000983ED4F3869577956795B795F795E795F2
:101AE0009F5FC1F7FE2B880F911D9695879597F9FB
:101AF000089597F99F6780E870E060E008959FEF90
:101B000080EC089500240A94161617061806090694
:101B1000089500240A941216130614060506089563
:101B2000092E0394000C11F4882352F0BB0F40F4EB
:101B3000BF2B11F460FF04C06F5F7F4F8F4F9F4F2B
:101B4000089557FD9058440F551F59F05F3F71F0AD
:101B50004795880F97FB991F61F09F3F79F0879514
:101B60000895121613061406551FF2CF4695F1DF9D
:101B700008C0161617061806991FF1CF869571052D
:101B8000610508940895E894BB2766277727CB0161
:101B900097F90895052E97FB1EF400940E94E10D1D
:101BA00057FD07D00E94330E07FC03D04EF40C946F
:101BB000E10D50954095309521953F4F4F4F5F4F28
:101BC000089590958095709561957F4F8F4F9F4FA9
:101BD00008950E94550EA59F900DB49F900DA49F4F
:101BE000800D911D11240895B7FF0C94E90D0E94FA
:101BF000E90D821B930B08952F923F924F925F92B3
:101C00006F927F928F929F92AF92BF92CF92DF920C
:101C1000EF92FF920F931F93CF93DF93CDB7DEB771
:101C2000CA1BDB0B0FB6F894DEBF0FBECDBF099405
:101C30002A88398848885F846E847D848C849B845C
:101C4000AA84B984C884DF80EE80FD800C811B816A
:101C5000AA81B981CE0FD11D0FB6F894DEBF0FBE99
:101C6000CDBFED010895A1E21A2EAA1BBB1BFD01F9
:101C70000DC0AA1FBB1FEE1FFF1FA217B307E4076B
:101C8000F50720F0A21BB30BE40BF50B661F771FC3
:101C9000881F991F1A9469F76095709580959095A3
:101CA0009B01AC01BD01CF010895A29FB001B39F7C
:101CB000C001A39F700D811D1124911DB29F700D55
:101CC000811D1124911D08955058BB27AA270E94F9
:101CD0007C0E0C94900D0E94820D38F00E94890DAC
:101CE00020F039F49F3F19F426F40C947F0D0EF484
:101CF000E095E7FB0C94790DE92F0E94A10D58F3B4
:101D0000BA17620773078407950720F079F4A6F5E0
:101D10000C94C30D0EF4E0950B2EBA2FA02D0B01E1
:101D2000B90190010C01CA01A0011124FF27591B20
:101D300099F0593F50F4503E68F11A16F040A22F26
:101D4000232F342F4427585FF3CF46953795279597
:101D5000A795F0405395C9F77EF41F16BA0B620B96
:101D6000730B840BBAF09150A1F0FF0FBB1F661FDD
:101D7000771F881FC2F70EC0BA0F621F731F841F20
:101D800048F4879577956795B795F7959E3F08F046
:101D9000B0CF9395880F08F09927EE0F9795879508
:101DA00008950E94E50E0C94900D0E94890D58F044
:101DB0000E94820D40F029F45F3F29F00C94790DC8
:101DC00051110C94C40D0C947F0D0E94A10D68F369
:101DD0009923B1F3552391F3951B550BBB27AA27E4
:101DE00062177307840738F09F5F5F4F220F331F1E
:101DF000441FAA1FA9F335D00E2E3AF0E0E832D0E6
:101E000091505040E695001CCAF72BD0FE2F29D0E8
:101E1000660F771F881FBB1F261737074807AB07BA
:101E2000B0E809F0BB0B802DBF01FF2793585F4F2F
:101E30003AF09E3F510578F00C94790D0C94C40D46
:101E40005F3FE4F3983ED4F3869577956795B79511
:101E5000F7959F5FC9F7880F911D9695879597F91C
:101E60000895E1E0660F771F881FBB1F6217730795
:101E70008407BA0720F0621B730B840BBA0BEE1FAA
:101E800088F7E09508950E944A0F6894B1110C9468
:101E9000C40D08950E94A90D88F09F5798F0B92F9E
:101EA0009927B751B0F0E1F0660F771F881F991F8F
:101EB0001AF0BA95C9F714C0B13091F00E94C30D61
:101EC000B1E008950C94C30D672F782F8827B85F71
:101ED00039F0B93FCCF3869577956795B395D9F7E7
:101EE0003EF490958095709561957F4F8F4F9F4FF1
:101EF00008950E94E80C08F48FEF0895991B79E08B
:101F000004C0991F961708F0961B881F7A95C9F789
:101F100080950895AA1BBB1B51E107C0AA1FBB1FD8
:101F2000A617B70710F0A61BB70B881F991F5A9565
:101F3000A9F780959095BC01CD010895EE0FFF1F84
:101F40000590F491E02D09940F931F93CF93DF93A5
:101F50008230910510F482E090E0E0912B02F09144
:101F60002C0230E020E0B0E0A0E0309799F4211599
:101F7000310509F44AC0281B390B24303105D8F546
:101F80008A819B816115710589F1FB0193838283AD
:101F9000FE0111C040815181028113814817590708
:101FA000E0F04817590799F4109761F012960C93D6
:101FB000129713961C933296CF01DF91CF911F9108
:101FC0000F91089500932B0210932C02F4CF21154A
:101FD000310551F04217530738F0A901DB019A018E
:101FE000BD01DF01F801C1CFEF01F9CF90932C02C1
:101FF00080932B02CDCFFE01E20FF31F81939193CB
:102000002250310939832883D7CF2091290230917A
:102010002A02232B41F420910201309103013093D5
:102020002A022093290220910001309101012115FB
:10203000310541F42DB73EB740910401509105019F
:10204000241B350BE0912902F0912A02E217F307D5
:10205000A0F42E1B3F0B2817390778F0AC014E5F18
:102060005F4F2417350748F04E0F5F1F50932A0229
:1020700040932902819391939FCFF0E0E0E09CCFC1
:10208000CF93DF930097E9F0FC013297138212821D
:10209000A0912B02B0912C02ED0130E020E01097CE
:1020A000A1F420813181820F931F20912902309168
:1020B0002A022817390709F061C0F0932A02E09339
:1020C0002902DF91CF910895EA01CE17DF07E8F5E5
:1020D0004A815B819E0141155105B1F7E901FB83FE
:1020E000EA8349915991C40FD51FEC17FD0761F49C
:1020F000808191810296840F951FE90199838883DD
:10210000828193819B838A83F0E0E0E012968D9137
:102110009C9113970097B9F52D913C911197CD01A2
:102120000296820F931F2091290230912A022817CC
:10213000390739F6309751F510922C0210922B0284
:10214000B0932A02A0932902BCCFD383C2834081DB
:102150005181840F951FC817D90761F44E5F5F4FF7
:1021600088819981480F591F518340838A819B81BF
:10217000938382832115310509F0B0CFF0932C02AF
:10218000E0932B029ECFFD01DC01C0CF13821282AF
:10219000D7CFB0E0A0E0EFECF0E10C94FE0D8C01A5
:1021A000009751F4CB010E94A40F8C01C801CDB758
:1021B000DEB7E0E10C941A0EFC01E60FF71F9C015C
:1021C00022503109E217F30708F49DC0D901CD91DF
:1021D000DC911197C617D70798F0C530D10530F3B9
:1021E000CE0104978617970708F3C61BD70B2297D3
:1021F000C193D1936D937C93CF010E944010D6CFB1
:102200005B01AC1ABD0A4C018C0E9D1EA0912B02E5
:10221000B0912C02512C412CF12CE12C109731F56E
:102220008091290290912A028815990509F05CC0D5
:102230004616570608F058C08091000190910101A0
:10224000009741F48DB79EB740910401509105016C
:10225000841B950BE817F90708F055C0F0932A0284
:10226000E0932902F90171836083A0CF8D919C9145
:10227000119712966C90129713967C901397A8154D
:10228000B90559F56C0142E0C40ED11CCA14DB0437
:1022900020F1AC014A195B09DA011296159780F01A
:1022A0006282738251834083D9016D937C93E114E0
:1022B000F10471F0D7011396FC93EE93129776CF49
:1022C00022968C0F9D1FF90191838083F301EFCF3C
:1022D000F0932C02E0932B0269CF4816590608F4BC
:1022E0002C017D01D3019ACFCB010E94A40F7C0168
:1022F000009749F0AE01B8010E948611C8010E9402
:102300004010870153CF10E000E050CFFB01DC010B
:1023100002C001900D9241505040D8F70895FB0142
:10232000DC018D91019080190110D9F3990B08956A
:10233000FB01DC0101900D920020E1F70895F89473
:02234000FFCFCD
:1023420000002D02800000000000B60116014301CA
:1023520003027401520166012F2F22225C5C620883
:10236200660C6E0A720D7409005C753030303000F4
:102372006E756C6C00747275650066616C736500D5
:0A23820064697374616E6365000006
:00000001FF
